:100000000C9435000C945D000C945D000C945D0024
:100010000C945D000C945D000C945D000C945D00EC
:100020000C945D000C945D000C945D000C945D00DC
:100030000C945D000C945D000C945D000C945D00CC
:100040000C944F020C945D000C941D020C94F7016B
:100050000C945D000C945D000C945D000C945D00AC
:100060000C945D000C945D00C90611241FBECFEFF7
:10007000D8E0DEBFCDBF11E0A0E0B1E0ECEAF3E1F3
:1000800002C005900D92A232B107D9F722E0A2E298
:10009000B1E001C01D92A432B207E1F710E0C5E360
:1000A000D0E004C02197FE010E94CE09C433D107DD
:1000B000C9F70E9499020C94D4090C940000AF92E5
:1000C000BF92CF92DF92EF92FF920F931F93CF9345
:1000D000DF936C017B018B01040F151FEB015E01A7
:1000E000AE18BF08C017D10759F06991D601ED913C
:1000F000FC910190F081E02DC6010995892B79F7DB
:10010000C501DF91CF911F910F91FF90EF90DF908C
:10011000CF90BF90AF900895FC01538D448D252F53
:1001200030E0842F90E0821B930B541710F0CF9691
:10013000089501970895FC01918D828D981761F0C3
:10014000A28DAE0FBF2FB11D5D968C91928D9F5FDA
:100150009F73928F90E008958FEF9FEF0895FC01B9
:10016000918D828D981731F0828DE80FF11D858D6C
:1001700090E008958FEF9FEF0895FC01918D228DFF
:10018000892F90E0805C9F4F821B91098F73992784
:10019000089587E891E00E94BD0021E0892B09F4D1
:1001A00020E0822F089580E090E0892B29F00E94C2
:1001B000C90081110C9400000895FC01A48DA80FC2
:1001C000B92FB11DA35ABF4F2C91848D90E0019699
:1001D0008F739927848FA689B7892C93A089B189B9
:1001E0008C91837080648C93938D848D981306C05A
:1001F0000288F389E02D80818F7D80830895EF92BE
:10020000FF920F931F93CF93DF93EC0181E0888FD0
:100210009B8D8C8D98131AC0E889F989808185FFA0
:1002200015C09FB7F894EE89FF896083E889F98942
:1002300080818370806480839FBF81E090E0DF9144
:10024000CF911F910F91FF90EF900895F62E0B8D97
:1002500010E00F5F1F4F0F731127E02E8C8D8E1152
:100260000CC00FB607FCFACFE889F989808185FFB9
:10027000F5CFCE010E94DD00F1CFEB8DEC0FFD2F0D
:10028000F11DE35AFF4FF0829FB7F8940B8FEA8974
:10029000FB8980818062CFCFCF93DF93EC01888D83
:1002A0008823B9F0AA89BB89E889F9898C9185FDF1
:1002B00003C0808186FD0DC00FB607FCF7CF8C917F
:1002C00085FFF2CF808185FFEDCFCE010E94DD005A
:1002D000E9CFDF91CF9108958E3008F08E5087706E
:1002E000806480937C0080917A00806480937A009F
:1002F00080917A0086FDFCCF809178009091790002
:1003000008953FB7F8948091230190912401A09122
:100310002501B091260126B5A89B05C02F3F19F0F5
:100320000196A11DB11D3FBFBA2FA92F982F882775
:10033000BC01CD01620F711D811D911D42E0660F50
:10034000771F881F991F4A95D1F70895FC010190E6
:100350000020E9F73197AF01481B590BBC0187E832
:1003600091E00C945F008F929F92AF92BF920F9397
:100370001F93CF93DF93CDB7DEB7A1970FB6F89455
:10038000DEBF0FBECDBF19A2423008F44AE08E0195
:100390000F5D1F4F842E912CB12CA12CA50194012F
:1003A0000E948D09E62FB901CA01EA30F4F4E05D3C
:1003B000D801EE938D01232B242B252B79F790E088
:1003C00080E0109719F0CD010E94A601A1960FB60A
:1003D000F894DEBF0FBECDBFDF91CF911F910F917B
:1003E000BF90AF909F908F900895E95CE1CF1F92EE
:1003F0000F920FB60F9211242F933F934F935F9359
:100400006F937F938F939F93AF93BF93EF93FF93DC
:1004100087E891E00E94DD00FF91EF91BF91AF91DD
:100420009F918F917F916F915F914F913F912F910C
:100430000F900FBE0F901F9018951F920F920FB63E
:100440000F9211242F938F939F93EF93FF93E0913B
:100450009701F09198018081E0919D01F0919E01BA
:1004600082FD1BC090818091A0018F5F8F732091CE
:10047000A101821741F0E091A001F0E0E957FE4FA1
:10048000958F8093A001FF91EF919F918F912F9174
:100490000F900FBE0F901F9018958081F4CF1F9280
:1004A0000F920FB60F9211242F933F938F939F9328
:1004B000AF93BF938091270190912801A0912901CA
:1004C000B0912A013091220123E0230F2D3758F5F6
:1004D0000196A11DB11D20932201809327019093C5
:1004E0002801A0932901B0932A01809123019091C2
:1004F0002401A0912501B09126010196A11DB11DF5
:100500008093230190932401A0932501B0932601A9
:10051000BF91AF919F918F913F912F910F900FBEFF
:100520000F901F90189526E8230F0296A11DB11D6C
:10053000D2CFCF93DF93CDB7DEB72C970FB6F89419
:10054000DEBF0FBECDBF789484B5826084BD84B514
:10055000816084BD85B5826085BD85B5816085BDBE
:1005600080916E00816080936E0010928100809176
:1005700081008260809381008091810081608093FE
:100580008100809180008160809380008091B10023
:1005900084608093B1008091B00081608093B0004E
:1005A00080917A00846080937A0080917A008260E2
:1005B00080937A0080917A00816080937A008091A4
:1005C0007A00806880937A001092C100E0919701D0
:1005D000F091980182E08083E0919301F091940181
:1005E0001082E0919501F09196018FEC808310923A
:1005F0009F01E0919B01F0919C0186E08083E09156
:100600009901F0919A01808180618083E091990144
:10061000F0919A01808188608083E0919901F09146
:100620009A01808180688083E0919901F0919A011C
:1006300080818F7D808382E090E090934001809361
:100640003F0180E090E0AEEBB2E4809343019093F1
:100650004401A0934501B09346018AE999E9A9EDC7
:10066000BFE380934B0190934C01A0934D01B09355
:100670004E0180E090E0A0E0B4E480935F019093AD
:100680006001A0936101B09362012EE420937C008D
:100690000E9481016B017C0132E0832E912CA12C00
:1006A000B12C0E9481016C197D098E099F09683E59
:1006B000734081059105A8F338EEC30E33E0D31ED5
:1006C000E11CF11C8A9489288A288B2829F0812C26
:1006D000912C54018394E5CF80917A0080648093BB
:1006E0007A0080917A0086FDFCCF8091780020917D
:1006F000790030E0322F2227032E000C440B550BDB
:10070000282B60E070E381E190E00E94AF092D8327
:100710003E834F8358878FB7F8948090270190903D
:100720002801A0902901B0902A018FBF80913F013C
:100730000E946C019093840180938301BC01990F06
:10074000880B990B0E940B086B017C012DEC3CEC93
:100750004CE054E40E94630787FF0AC026E636E6B1
:1007600046EE53E4C701B6010E94BB081816A4F078
:100770002FB7F8948091270190912801A091290129
:10078000B0912A012FBF88199909AA09BB09813D97
:100790009740A105B10550F28FB7F8942091270139
:1007A000309128014091290150912A0129833A83EF
:1007B0004B835C838FBF1A86198610E000E02FB749
:1007C000F8948091270190912801A0912901B0917E
:1007D0002A012FBF29813A814B815C81821B930BB7
:1007E000A40BB50B803D9740A105B10508F046C1AB
:1007F00049855A854F5F5F4F5A87498780915701D6
:1008000090915801A0915901B0915A0180935301E0
:1008100090935401A0935501B093560180913F01EC
:100820000E946C019093500180934F01809141018F
:100830000E946C017C019093520180935101409081
:100840005F015090600160906101709062012090A2
:100850004F0130905001B101032C000C880B990B13
:100860000E940B084B015C01A30192010E94F60655
:1008700020E030E040E85AE30E94C008A301920162
:100880000E94F7069B01AC0120935F013093600149
:100890004093610150936201C501B4010E94F606C4
:1008A0004B015C018092570190925801A09259012E
:1008B000B0925A01409063015090640160906501CC
:1008C00070906601B701FF0C880B990B0E940B0812
:1008D0006B017C01A30192010E94F60620E030E04A
:1008E00040E85AE30E94C008A30192010E94F70663
:1008F0009B01AC0120936301309364014093650137
:1009000050936601C701B6010E94F6066B017C0197
:10091000C0925B01D0925C01E0925D01F0925E01B9
:10092000A5019401C501B4010E94C0089B01AC015E
:1009300020936B0130936C0140936D0150936E01D5
:1009400060916F01709170018091710190917201BD
:100950000E94F70660936F0170937001809371019C
:1009600090937201A7019601C701B6010E94C008C9
:100970009B01AC0120937301309374014093750186
:10098000509376016091770170917801809179019F
:1009900090917A010E94F706609377017093780135
:1009A0008093790190937A014090530150905401C3
:1009B0006090550170905601A3019201C501B401E8
:1009C0000E94F60620914B0130914C0140914D015F
:1009D00050914E010E94C008A30192010E94F706A7
:1009E0009B01AC012093670130936801409369013A
:1009F00050936A01C701B6010E94C0089B01AC0177
:100A000020937B0130937C0140937D0150937E01C4
:100A100060917F01709180018091810190918201AC
:100A20000E94F70660937F0170938001809381019B
:100A3000909382018091860180938501809183014A
:100A400090918401821593051CF01092860103C0D9
:100A500031E0309386018091860149855A85413085
:100A6000510511F48093850190918501891711F04A
:100A70000F5F1F4F0832110509F0A1CEAD81BE8175
:100A8000BD01BB0F880B990B0E940B0820E030E0E2
:100A90004AE754E40E94680720E030E040E85AE367
:100AA0000E94C0084B015C01209143013091440138
:100AB00040914501509146010E94C0086D837E839C
:100AC0008F83988729853A85B90190E080E00E945C
:100AD00009082B013C01AC019B0160916F017091F1
:100AE000700180917101909172010E9468070E94CB
:100AF00033099B01AC016D817E818F8198850E94B5
:100B0000C0086B017C01C982DA82EB82FC82C09250
:100B10003701D0923801E0923901F0923A012091E8
:100B20004701309148014091490150914A01C50166
:100B3000B4010E94C00869877A878B879C87A301CC
:100B40009201609177017091780180917901909183
:100B50007A010E9468070E9433099B01AC016985F4
:100B60007A858B859C850E94C0084B015C01809230
:100B70003B0190923C01A0923D01B0923E0129853B
:100B80003A854B855C856D817E818F8198850E9439
:100B9000C00820917F0130918001409181015091E6
:100BA00082010E94C008A30192010E9468072B01E4
:100BB0003C0140922B0150922C0160922D017092C9
:100BC0002E01A5019401C701B6010E94C0089B0136
:100BD000AC0120932F0130933001409331015093A9
:100BE0003201C301B2010E94680760933301709320
:100BF0003401809335019093360110926F01109269
:100C0000700110927101109272011092770110928E
:100C100078011092790110927A0110927F0110925E
:100C200080011092810110928201A7019601C701F3
:100C3000B6010E9473098823A9F082E191E00E9425
:100C4000A6018EE191E00E94A601A0E0B0E0AB2BEE
:100C500009F41BCD0E94C900882309F416CD0E9417
:100C6000000013CD46015701E894B7F82FEF3FEF8E
:100C70004FE75FE7C501B4010E94730981110DC000
:100C80002FEF3FEF4FE75FE7C501B4010E94630715
:100C900018161CF486E191E0D2CF2FEF3FEF4FE71B
:100CA0005FE4C701B6010E94BB0818161CF48AE174
:100CB00091E0C5CF2FEF3FEF4FE75FECC701B601E3
:100CC0000E94630787FDF3CF20E030E0A901C70150
:100CD000B6010E94630787FF0CC06DE287E891E0D0
:100CE0000E94FF00D701C601B05889839A83AB8365
:100CF000BC832AE037ED43EA5BE369817A818B812B
:100D00009C810E94F7064B015C010E94DA076B018F
:100D10007C010E9409089B01AC01C501B4010E943D
:100D2000F6064B015C014AE0C701B6010E94B3011F
:100D30006EE287E891E00E94FF0020E030E040E2B0
:100D400051E4C501B4010E94C0084B015C010E943E
:100D5000DA076B01F12CE12C4AE0C701B6010E94D1
:100D6000B301C701B6010E9409089B01AC01C5018E
:100D7000B4010E94F60620E030E040E251E40E9417
:100D8000C0080E94DA0790E080E04AE00E94B301C8
:100D900058CFE7E8F1E01382128288EE93E0A0E0FA
:100DA000B0E084839583A683B78384E091E0918348
:100DB000808385EC90E09587848784EC90E097872A
:100DC000868780EC90E0918B808B81EC90E0938B18
:100DD000828B82EC90E0958B848B86EC90E0978BF5
:100DE000868B118E128E138E148E08955058BB2749
:100DF000AA270E940E070C9481080E94730838F0FD
:100E00000E947A0820F039F49F3F19F426F40C94DC
:100E100070080EF4E095E7FB0C946A08E92F0E9435
:100E2000920858F3BA17620773078407950720F0F2
:100E300079F4A6F50C94B4080EF4E0950B2EBA2FB5
:100E4000A02D0B01B90190010C01CA01A0011124D0
:100E5000FF27591B99F0593F50F4503E68F11A167C
:100E6000F040A22F232F342F4427585FF3CF46950D
:100E700037952795A795F0405395C9F77EF41F162F
:100E8000BA0B620B730B840BBAF09150A1F0FF0FF9
:100E9000BB1F661F771F881FC2F70EC0BA0F621FE5
:100EA000731F841F48F4879577956795B795F795D5
:100EB0009E3F08F0B0CF9395880F08F09927EE0F6A
:100EC0009795879508950E94460808F481E0089553
:100ED0000E947C070C9481080E947A0858F00E94B6
:100EE000730840F029F45F3F29F00C946A0851110F
:100EF0000C94B5080C9470080E94920868F399232A
:100F0000B1F3552391F3951B550BBB27AA27621705
:100F10007307840738F09F5F5F4F220F331F441F12
:100F2000AA1FA9F335D00E2E3AF0E0E832D0915046
:100F30005040E695001CCAF72BD0FE2F29D0660F33
:100F4000771F881FBB1F261737074807AB07B0E876
:100F500009F0BB0B802DBF01FF2793585F4F3AF07C
:100F60009E3F510578F00C946A080C94B5085F3FD9
:100F7000E4F3983ED4F3869577956795B795F79502
:100F80009F5FC9F7880F911D9695879597F90895EA
:100F9000E1E0660F771F881FBB1F62177307840786
:100FA000BA0720F0621B730B840BBA0BEE1F88F795
:100FB000E09508950E949A0888F09F5798F0B92FFD
:100FC0009927B751B0F0E1F0660F771F881F991F7E
:100FD0001AF0BA95C9F714C0B13091F00E94B40864
:100FE000B1E008950C94B408672F782F8827B85F74
:100FF00039F0B93FCCF3869577956795B395D9F7D6
:101000003EF490958095709561957F4F8F4F9F4FDF
:101010000895E89409C097FB3EF4909580957095EB
:1010200061957F4F8F4F9F4F9923A9F0F92F96E934
:10103000BB279395F695879577956795B795F111A9
:10104000F8CFFAF4BB0F11F460FF1BC06F5F7F4F46
:101050008F4F9F4F16C0882311F096E911C0772358
:1010600021F09EE8872F762F05C0662371F096E861
:10107000862F70E060E02AF09A95660F771F881F30
:10108000DAF7880F9695879597F90895990F0008D4
:10109000550FAA0BE0E8FEEF16161706E807F9074A
:1010A000C0F012161306E407F50798F0621B730BE5
:1010B000840B950B39F40A2661F0232B242B252B66
:1010C00021F408950A2609F4A140A6958FEF811D09
:1010D000811D089597F99F6780E870E060E00895AA
:1010E0009FEF80EC089500240A9416161706180640
:1010F0000906089500240A9412161306140605061C
:101100000895092E0394000C11F4882352F0BB0FAC
:1011100040F4BF2B11F460FF04C06F5F7F4F8F4F0F
:101120009F4F089557FD9058440F551F59F05F3F4A
:1011300071F04795880F97FB991F61F09F3F79F0F9
:1011400087950895121613061406551FF2CF46957B
:10115000F1DF08C0161617061806991FF1CF8695FD
:101160007105610508940895E894BB2766277727E1
:10117000CB0197F908950E94460808F48FEF08956F
:101180000E94D3080C9481080E94730838F00E94D2
:101190007A0820F0952311F00C946A080C947008DA
:1011A00011240C94B5080E94920870F3959FC1F326
:1011B000950F50E0551F629FF001729FBB27F00D05
:1011C000B11D639FAA27F00DB11DAA1F649F66275A
:1011D000B00DA11D661F829F2227B00DA11D621FA9
:1011E000739FB00DA11D621F839FA00D611D221F63
:1011F000749F3327A00D611D231F849F600D211D47
:10120000822F762F6A2F11249F5750409AF0F1F0C9
:1012100088234AF0EE0FFF1FBB1F661F771F881F32
:1012200091505040A9F79E3F510580F00C946A08F8
:101230000C94B5085F3FE4F3983ED4F38695779518
:101240006795B795F795E7959F5FC1F7FE2B880FD8
:10125000911D9695879597F9089519F416F40C94B5
:1012600070080C9478090E949A08B8F39923C9F37E
:10127000B6F39F57550B87FF0E9486090024A0E60E
:1012800040EA900180585695979528F4805C660F47
:10129000771F881F20F026173707480730F4621B96
:1012A000730B840B202931294A2BA6951794079498
:1012B000202531254A2758F7660F771F881F20F011
:1012C00026173707480730F4620B730B840B200D89
:1012D000311D411DA09581F7B901842F9158880FC8
:1012E0009695879508950E944608880B990B089556
:1012F0009F3F31F0915020F4879577956795B7958A
:10130000880F911D9695879597F9089591505040B3
:10131000660F771F881FD2F70895A1E21A2EAA1B25
:10132000BB1BFD010DC0AA1FBB1FEE1FFF1FA21795
:10133000B307E407F50720F0A21BB30BE40BF50B92
:10134000661F771F881F991F1A9469F7609570951B
:10135000809590959B01AC01BD01CF010895052EAC
:1013600097FB1EF400940E94C60957FD07D00E9407
:101370008D0907FC03D04EF40C94C6095095409596
:10138000309521953F4F4F4F5F4F08959095809531
:10139000709561957F4F8F4F9F4F0895EE0FFF1F00
:0C13A0000590F491E02D0994F894FFCF23
:1013AC0000000000FF005F008C004C01BD009B00A2
:1013BC00AF006E616E00696E66006F7666000D0A96
:0213CC0000001F
:00000001FF
